:020000040800F2
:10000000780A0020C9000008691300089D11000843
:1000100000000000000000000000000000000000E0
:100020000000000000000000000000006D13000848
:1000300000000000000000006B1300086F130008B0
:10004000DB00000800000000DB000008DB00000807
:10005000DB000008DB000008DB000008DB00000814
:1000600000000000DB000008FD0100081502000888
:10007000DB000008DB000008DB00000800000000D7
:10008000DB000008DB00000800000000DB000008C7
:10009000DB000008DB000008DB000008DB000008D4
:1000A000DB000008DB000008DB000008B1170008D7
:1000B000C11700080348854600F08EF80048004745
:1000C000651E0008780A002004488047044800475D
:1000D000FEE7FEE7FEE7FEE7FEE7FEE77713000830
:1000E000B500000830B50B4601460020202201244F
:1000F00009E00D46D5409D4205D31D469540491B5C
:100100002546954040191546521E002DF1DC30BDA4
:10011000F0B51FB40646002082B005464024019188
:1001200000901BE0019922460F46304600F020F86F
:10013000049A059B801A994110D31046194622460D
:1001400000F039F8361A8F4101972246012000212C
:10015000009F00F030F838184D4100902046641E92
:100160000028DFDC019B00982946324607B0F0BD2D
:1001700010B5202A04DB0846203AD040002110BDEB
:100180000B46D340D0402024A21A91400843194680
:1001900010BDD2B201E00270401C491EFBD2704774
:1001A0000022F6E710B513460A4604461946FFF743
:1001B000F0FF204610BD10B5202A04DB0146203A8E
:1001C0009140002010BD914020239C1A0346E3403B
:1001D0001943904010BD0000064C0125064E05E075
:1001E000E36807CC2B430C3C98471034B442F7D358
:1001F000FFF764FF94200008B420000810B50348FE
:1002000000F04BF8024800F048F810BD9C050020B3
:100210005805002010B5034800F03FF8024800F0F0
:100220003CF810BD24060020E005002010B504466F
:100230000068054940181421FFF754FF800020642E
:100240000248E06310BD0000F8FFFDBF000002405F
:10025000704770B50024014620314A78022A03D045
:1002600004218163012416E0026813680E25AB4364
:100270001360026813685B085B0013600122056C61
:100280001346AB40C56B6B604A7000220A70416B2D
:10029000002900D08847204670BDF0B4C16B0D68BE
:1002A00001680C680422066C1346B3402B420DD043
:1002B00063070BD50B689B0602D40B6893430B6056
:1002C000016C8A40C16B4A60C16A19E00227B740DD
:1002D00002462F4001232032002F15D0A70713D547
:1002E0000C68A40604D40C680A25AC430C60537057
:1002F000036C02219940C36B596000211170816A1F
:10030000002916D0F0BC08470827B7402F4210D06C
:1003100024070ED50C680E25AC430C60046C1946FE
:10032000A140C46B61608363537000211170016B45
:10033000E6E7F0BC7047000070B5040021D0022150
:100340002046203005464170226811680E48A36897
:100350000140606826691843E368334318436369C2
:100360001843A3691843E369184308431060204603
:10037000FFF75CFF0021A163012068702970084627
:1003800070BD012070BD00000FC0FFFF70B50446B6
:1003900000F0C4F80546601C02D004480078241818
:1003A00000F0BCF8401BA042FAD370BD0000002052
:1003B000F8B500238DE001249C40A44622407DD066
:1003C0004C68022C01D0122C0CD1DC08A400271898
:1003D0003C6A5D07ED0E0F26AE40B4430E69AE4099
:1003E00026433E6205685E000324B4400F79A543AE
:1003F000BF07BF0FB7402F4307604D68012D05D0E1
:10040000022D03D0112D01D0122D0ED18568CF6899
:10041000A543B7402F43876047686546AF430D79D2
:10042000ED06ED0F9D403D434560C568A5438C68D2
:10043000B4402C43C4604C68E40049D5284CA569FD
:1004400001263543A561A4699D0834400094254CDC
:10045000AD002F19BC689D072E0F0F25B540AC438A
:100460000925ED06A84201D100250FE01E4DA84246
:1004700001D101250AE01D4DA84201D1022505E068
:100480001B4DA84201D1032500E00525B5402543B9
:10049000BD60184C25684E689543F60300D515439A
:1004A000256065684E689543B60300D515436560C1
:1004B000A5684E689543F60202D500E008E01543B2
:1004C000A560E5684E689543B60200D51543E56022
:1004D0005B1C0A681446DC4000D06CE7F8BD0000E5
:1004E00000100240000001400004004800080048DD
:1004F000000C0048000401400069084000D00120C1
:10050000704742690A4200D0090481617047002A9D
:1005100001D08161704781627047000001488068A6
:1005200070470000000000200248816802788918A6
:10053000816070470000002010B506480168102255
:1005400011430160002000F007F800F027F80020B8
:1005500010BD00000020024070B504460D4D7D2006
:100560002978C000FFF7BEFD01460B480068FFF781
:10057000B9FD00F043FB002809D1042C07D200226A
:100580002146401E00F02AF800206C6070BD01205A
:1005900070BD0000000000200C00002008B50848D5
:1005A0008169012211438161816911400091C26911
:1005B00001040A43C261C0690840009008BD000000
:1005C00000100240002805DBC106C90E012088404A
:1005D000014908607047000000E100E010B501F03B
:1005E00059FB10BDF8B505460068354CC00352D51F
:1005F000E0690026C00007D4E16920040143E161FD
:10060000E1690140012600912E480168C90510D416
:100610000168821511430160FFF780FF074604E07F
:10062000FFF77CFFC01B642824D826480068C0055B
:10063000F6D5206A03273F02384020D06968394048
:1006400081421CD0206A226AB843012109040A436E
:100650002262226A8A4322622062C0070FD0FFF71B
:100660005DFF009008E0FFF759FF0099411A164816
:10067000814201D90320F8BD206A8007F3D5206AA2
:100680006968B84308432062002E04D0E169012064
:1006900000078143E1612878C00705D0206BA96875
:1006A00080088000084320632878800605D5206BE9
:1006B00010218843E968084320630020F8BD00004A
:1006C000001002400070004088130000F8B50F468B
:1006D000060059D03A4D2868C007C00FB84209D269
:1006E000286840084000384328602868C007C00FC9
:1006F000B84249D13068334C81070CD5400704D546
:10070000606807210902084360606068F02188433F
:10071000B168084360603078C00726D0706801284F
:100720000ED0216802280ED0890700292CDA6168D2
:100730008908890001436160FFF7F0FE00900DE039
:1007400021688903F1E78901EFE7FFF7E7FE0099E8
:10075000411A1D48814201D90320F8BD60680C216F
:100760000840716889008842EFD12868C007C00F2F
:10077000B8420BD9286840084000384328602868F0
:10078000C007C00FB84201D00120F8BD3078400743
:1007900006D56068072109028843F1680843606054
:1007A00000F028F86168094A0906090F515CC84041
:1007B000074908600020FFF7CFFE0020F8BD0000C9
:1007C0000020024000100240881300002020000892
:1007D0000C0000200448054900684968044A49059E
:1007E000490F515CC84070470C00002000100240C7
:1007F0003020000810B514A30FCB88B06C460FC48E
:1008000015A30FCB0FC4184A51680C200B460340A8
:100810001648042B16D0082B14D18B021B0F6C46E4
:10082000E45CD26A04AB1207120F9A5CC90305D5C7
:1008300000231946FFF76CFC214601E020460C49D5
:1008400001F010FA08B010BD0203040506070809FC
:100850000A0B0C0D0E0F1010010203040506070809
:10086000090A0B0C0D0E0F100010024000127A0046
:1008700000093D00FEB5040070D02078DC4DC007B3
:100880004AD068680007800F012807D06868000711
:10089000800F022809D16868C00306D52868800344
:1008A0003AD560680028E7D036E06168012914D0A5
:1008B00001208004002901D0052914D02A680121D3
:1008C00009048A432A6029688143296060680028F6
:1008D00016D0FFF723FE06460EE028680121090422
:1008E00008432860F2E7296801432960F5E7FFF72C
:1008F00015FE801B64286ED828688003F7D50BE0AE
:10090000FFF70CFE064604E0FFF708FE801B642894
:10091000F1D828688003F7D42078012680070028C2
:100920003CDA68680007800F07D068680007800F0E
:10093000022809D16868C00306D42868800716D544
:10094000E06801280AD112E0E0680028286816D083
:1009500030432860FFF7E2FD074605E043E1FFF77B
:10096000DDFDC01B0228C6D828688007F7D5286897
:10097000F82188432169C900084328600EE0400837
:1009800040002860FFF7CAFD074604E0FFF7C6FDF8
:10099000C01B0228AFD828688007F7D4207800074A
:1009A00022D5E0690028686A0ED030436862FFF7FC
:1009B000B5FD074604E0FFF7B1FDC01B02289AD839
:1009C000686A8007F7D50FE0400840006862FFF7CB
:1009D000A5FD074605E09DE0FFF7A0FDC01B02282E
:1009E00089D8686A8007F7D4207804274007002850
:1009F00060DA00200190E869C00008D4E969B8060F
:100A00000143E961E96901400120009101907948C1
:100A10000168C90511D40168821511430160FFF70F
:100A20007DFD009005E0FFF779FD0099401A6428EC
:100A300070D870480068C005F5D5A06801280AD0B4
:100A4000002801D0052810D0286A400840002862FC
:100A5000286AB84301E0286A30432862A068002869
:100A600012D0FFF75BFD00900AE0286A3843286245
:100A7000F1E7FFF753FD0099411A5F48814249D8D9
:100A8000286A8007F5D50DE0FFF748FD009006E0E5
:100A9000FFF744FD0099411A574881423AD8286A25
:100AA0008007F5D40198002804D0E96901200007E7
:100AB0008143E9612078C00635D5606901280CD0F2
:100AC000401D686B23D038436863686B4008400062
:100AD0006863FFF723FD064622E0686B38436863CE
:100AE000686B30436863FFF719FD064604E0FFF7C3
:100AF00015FD801B02285BD8686B8007F7D5686BF3
:100B0000F8218843A169C900084368630BE0B84332
:100B10006863F4E74CE0FFF701FD801B022847D82B
:100B2000686B8007F7D4206A00285ED069680907DF
:100B3000890F022942D0012636060228286805D0EE
:100B4000B0432860FFF7EAFC044633E0B043286076
:100B5000FFF7E4FC074604E0FFF7E0FCC01B0228B7
:100B600026D828688001F7D4E86AE16A0009000104
:100B70000843E862616AA06A084369683D2212047A
:100B8000914308436860286830432860FFF7C6FC3B
:100B9000044604E0FFF7C2FC001B022808D82868BE
:100BA0008001F7D521E0FFF7B9FC001B022801D92D
:100BB0000320FEBD28688001F5D416E00128F8D096
:100BC0006868E96A01221204636A02409A420AD103
:100BD0000907E26A090F914205D10F2189040840F3
:100BE000A16A884201D00120FEBD0020FEBD0000A8
:100BF000001002400070004088130000094910B541
:100C0000401E884201D9012010BD074C60610321BC
:100C1000081F01F03FF80020A0610720206100209C
:100C200010BD0000FFFFFF0000E000E0F0B502464D
:100C30002032137F012B1ED0012515770223537715
:100C400006687468B3687027BC430F6827437760F1
:100C500000680A4CA04205D0094CA04202D0094CC1
:100C6000A04204D180244968A34319438160557789
:100C700000201077F0BD0220F0BD0000002C0140E4
:100C8000000400400040014070B5040005D0254636
:100C90002035687F002802D006E0012070BD0020CA
:100CA0002877204600F00AF802206877211D206886
:100CB00000F062FB01206877002070BD08B5006875
:100CC0000549884207D10548C26902210A43C26129
:100CD000C0690840009008BD0004004000100240B8
:100CE000F8B5054604462035287F012817D001268F
:100CF0002E7702206877226890687727FF23B84311
:100D00001B02984390600A68502A31D00EDC202ADA
:100D10004BD006DC002A48D0102A3AD145E0022008
:100D2000F8BD302A41D0402A33D136E0602A27D09E
:100D3000702A12D001200003121A2AD0824228D130
:100D4000CB684A688968206800F05AFB206881688F
:100D500001229203114381601BE0CB684A688968D5
:100D6000206800F04DFB216888683843886010E0F7
:100D7000CA684968206800F056FB5021206806E0E8
:100D8000CA684968206800F05FFB6021206800F0B5
:100D900042FB6E7700202877F8BDCA684968206852
:100DA00000F041FB40212068F1E711462068EEE7A2
:100DB00070470000F8B502680446D069116893686E
:100DC0004C4D06462E402025002E68D0DE07F60F3B
:100DD000FF2721370F40374375D0C70706D0CF050F
:100DE00004D501271762E26F3A43E267820708D50C
:100DF000DA0706D0276802223A62E26F04273A43F4
:100E0000E267420708D5DA0706D0236804221A628F
:100E1000E26F02231A43E267020709D50A462A4015
:100E2000324305D0236808221A62E36F1343E36755
:100E3000020508D54A0106D501222368D2021A62AA
:100E4000E26F2A43E267E26F002A30D0800606D5BF
:100E5000880604D5216E002901D020468847E06F1E
:100E600021688968490602D42821084224D02046F6
:100E700000F09CFB20688168490619D581684022F2
:100E800091438160E06E002812D01B494163E06EFF
:100E9000FFF7DFF900280AD0E06E416B06E0830619
:100EA00011D58B060FD5216E12E020468847F8BD7C
:100EB0002046FFF77DFFF8BD2046FFF779FF0020B1
:100EC000E067F8BDFFE7030605D50B0603D5616EA5
:100ED0000029EAD1F5E74006F3D54806F1D51168B7
:100EE000204640239943116065670021616600F048
:100EF00054F9E6E70F0800009915000810B5040042
:100F000003D0606F002802D007E0012010BD00214F
:100F100070200155204600F027F8242060672068E3
:100F20000168490849000160204600F04FFB012894
:100F3000ECD0606A002802D0204600F098FA2068C1
:100F400041680122D20291434160206881680822F1
:100F500091438160206801680122114301602046AD
:100F600000F0EAFA10BD0000F0B587B00446142185
:100F70006846FFF715F9504F012126684F4849048C
:100F8000022301220025BE4247D18769CE10374394
:100F9000876187693740059746690E434661406916
:100FA0006E46084005900320400229C6032005C66E
:100FB00009206946C006FFF7FBF94148414E8027EA
:100FC00021C63560B560F5603561776075613D4873
:100FD000083EFFF7B1F9002801D0FFF739F9E666BE
:100FE0007462384E36484436143830601020311D53
:100FF000A1C135617561B5613046F561FFF79CF9B6
:10100000002801D0FFF724F9A666002211461B2014
:101010007462FFF7E3FA1B204AE02B4FBE4249D12E
:10102000C6690E43C661C6690E40059646690E4301
:10103000466140696E46084005900C2029C609208B
:101040006946C00603950492FFF7B2F91C481D4E8D
:101050002830883621C63560B560F5608027356157
:101060003046776075610838083EFFF765F900285B
:1010700001D0FFF7EDF8E6667462124E1048CC36E8
:10108000143030601020311DA1C135617561B5612A
:101090003046F561FFF750F9002801D0FFF7D8F886
:1010A000A666002211461C207462FFF797FA1C20E6
:1010B000FFF788FA07B0F0BD003801400010024089
:1010C000300002405805002000440040FFB50446AF
:1010D000406F83B017460D4620285CD1002D0AD002
:1010E000002F08D0A168C001814207D120690028E3
:1010F00004D1E80702D0012007B0F0BD20466030DF
:101100000290007C012846D0029801210174002041
:10111000E06721206067FFF701FA2646403601901C
:10112000378277820120A1680003814202D12069C1
:10113000002802D02F46002511E000270FE00022F2
:101140008021204600F0E6FA002815D1002F15D0A6
:101150002168387808857F1C708A401E7082708AEA
:10116000019B002806980090E9D1002240212046EA
:1011700000F0D0FA002808D00320BDE728882168B5
:10118000C005C00D0885AD1CE6E720206067029908
:1011900000200874B0E70220AEE77047FEE70000C9
:1011A00008B50C4841690122114341614069104072
:1011B0000022009011460A20FFF710FA0A20FFF7DC
:1011C00001FA002211460B20FFF708FA0B20FFF767
:1011D000F9F908BD00100240F0B587B01421684647
:1011E000FEF7DEFF274842690121C9040A43426134
:1011F00042690A4005924269C9000A434261426954
:101200000A400592426949110A43426142690A4013
:101210000592426949000A43426140690927084032
:10122000FF060590002220213846FFF770F90022C2
:1012300008211548FFF76BF90120400300240090B6
:101240000194694602941148FFF7B2F8202501265F
:10125000029469463846019600950394FFF7A8F872
:101260000820009002946946019603940648FFF70F
:101270009FF801946946044800950294FFF798F896
:1012800007B0F0BD0010024000040048000800480C
:1012900010B586B00024009416480194029403947B
:1012A00004941349059401602F2184604160046116
:1012B00001218461C160FFF7E7FC002801D0FEF73F
:1012C000C7FF01200003009069460A48FFF708FDA8
:1012D000002801D0FEF7BCFF049404A9054805943A
:1012E000FFF7A4FC002801D0FEF7B2FF06B010BD46
:1012F000000400401400002010B50C480A490160A9
:101300004B210902416000218160C160016181615E
:10131000C1610C22016242614162FFF7EFFD0028CA
:1013200001D0FEF795FF10BD0038014058040020A1
:1013300010B50C480A490160E121490241600021D1
:101340008160C16001618161C1610C220162426101
:101350004162FFF7D3FD002801D0FEF779FF10BDF1
:1013600000440040D804002070477047704710B513
:10137000FFF7DAF810BD7047F0B502681A4B1B4C46
:10138000984201D0A04203D17025AA434D682A4358
:10139000174D184E184F98420AD0A04208D0174C4B
:1013A000A04205D0A84203D0B04201D0B84205D136
:1013B0001446032212029443CA6822438024A243A3
:1013C0004C69224302608A68C2620A68826298425B
:1013D00005D0A84203D0B04201D0B84201D109697A
:1013E000016301214161F0BD002C01400004004077
:1013F00000400140004401400048014000200040FE
:1014000030B58468FF252D021B021343AC430B4308
:101410002343836030BD826870239A430A430721C7
:101420000A438260704730B5036A046A6408640046
:1014300004628469F025AC43120122430A24A343C9
:101440000B438261036230BD30B5036A1024A343AD
:1014500003628469036A0F252D031203AC43224300
:10146000A024A343090119438261016230BD10B574
:10147000818CC90707D001684A6801235B049A433D
:10148000836A1A434A60818C890707D501684A68D4
:1014900001231B049A43C36A1A434A60818C49079B
:1014A00007D501684A6801239B049A43036B1A43DA
:1014B0004A60818C090707D501684A680123DB036C
:1014C0009A43436B1A434A60818CC90607D5026868
:1014D000916801231B039943836B19439160818CAD
:1014E000890607D501688A6801235B039A43C36BA9
:1014F0001A438A60818C490612D503685A68012113
:101500000905046C8A4322435A60026C8A4207D15F
:101510000268516803235B059943436C194351608A
:10152000818C090607D501684A680123DB04806CB9
:101530009A4302434A6010BDF8B500260446C667C8
:10154000FEF7ECFF054620680068124F000709D53A
:1015500001212B46002249052046009700F0DAF8C9
:1015600000280DD12068006840070BD501212B46CB
:10157000002289052046009700F0CCF8002801D011
:101580000320F8BD20206067A06760342674002027
:10159000F8BD0000FFFFFF0110B5406A00220146C0
:1015A00040314A834A82FFF703FC10BD01680A6894
:1015B000FF2321339A430A6001688A685208520067
:1015C0008A602021816700210166704770B504465A
:1015D00080682169E2690843616900251143226836
:1015E00008431168444B1940014311602168486861
:1015F000032212039043E26810434860A169206A05
:101600002268084391680B231B02994301439160B0
:101610003A492068884210D13948006B8007800F12
:1016200011D0012805D0022805D003280AD10220B4
:1016300009E0042007E0082005E03249884201D192
:10164000002000E010200122E169D2032E4E9142D9
:1016500028D1002806D0022807D0042817D008284F
:1016600044D11AE0FFF7B6F813E06168274A48084A
:101670008018FEF737FD80B201461039B14235D8E7
:101680002149491C01400007400F084321E0FFF7B2
:10169000B1F8616840004A08EAE761680122480839
:1016A0001204E5E7002806D0022807D0042813D04A
:1016B00008281BD116E0FFF78DF80FE06168144A87
:1016C000480811E0FEF70EFD80B201461039B14224
:1016D0000CD82168C8600AE0FFF78CF861684A08F6
:1016E0001018EFE7616848088018EBE70125002033
:1016F00020666066284670BDF369FFFF0038014030
:101700000010024000440040EFFF00000024F400FD
:1017100000127A00FFB581B005460F4604466035D9
:101720000A9E38E0701C36D0FEF7F8FE0499401A85
:10173000B04221D8002E1FD02068016849072AD561
:10174000C069C043000526D401202168C002086298
:1017500020680168FF22A1329143016020688168FE
:1017600049084900816020206067A067E067002089
:101770002874032005B0F0BD20680168FF22A13263
:1017800091430160206881684908490081602020F8
:101790006067A067EBE72068C1693846884305D0D9
:1017A000002103988142BDD00020E3E70121F8E742
:1017B00010B50248FFF7FEFA10BD000058040020E3
:1017C00010B50248FFF7F6FA10BD0000D80400205B
:1017D000F7B507460D46F52000F03EF900263446E1
:1017E00008E02948005D00F037F92748005D4640D1
:1017F000641CE4B2BC42F4D3304600F02DF9F5206D
:1018000000F02AF9214E00207080FEF787FE044682
:101810000027FEF783FE0646B44203D9FEF77EFE9C
:101820000446012719484288AA4203D20298311B74
:101830008142EDD3002FEBD114480178C90704D0C1
:10184000002101704188A94201D00820FEBD017924
:10185000F52915D14119C978F52911D10A494379DA
:1018600009788B420CD100230121521E04E0441858
:1018700024796340491CC9B28A42F8DC002B01D0AC
:101880000120FEBD0020FEBD68060020540000209F
:1018900010B50F480C210170002141708170C1709A
:1018A00001710C4A08210520FFF792FF0A49002820
:1018B00004D1087A00F04AF8012806D0087A0528F1
:1018C00002D0082800D0012010BD002010BD00006B
:1018D00068060020881300005400002010B50B4853
:1018E00005210170002141708170C1700171FF22DA
:1018F000F53208210520FFF76BFF002803D10448CB
:10190000007A002800D0012010BD000068060020E9
:101910005400002010B50B480921017000214170CE
:101920008170C1700171642208210520FFF750FF0A
:10193000002803D10448017A002901D0FF2010BDFE
:10194000C07910BD6806002054000020012805D091
:10195000022803D0032801D00020704701207047DF
:1019600070B5244D08212846FEF7C6FD09247D26C2
:10197000E406F60001282CD070BD01222021284663
:10198000FEF7C5FDFF202D30FEF700FD1A4800F0E0
:1019900059F9FFF77DFF002806D005280CD008284C
:1019A0000AD00F2815D107E0012220212046FEF79A
:1019B000AEFDFF20F53005E0012220212046FEF794
:1019C000A6FD3046FEF7E2FC002220212046FEF76D
:1019D0009EFD08212846FEF78FFD0028CDD100226C
:1019E00020212846FEF793FD002220212046FEF705
:1019F0008EFD70BD000400483820000870B594B01A
:101A000030216846FEF7CCFB00240E94139410207E
:101A10000994022504900D940F9405201294012638
:101A20000095C0040C94109403960A9011940895A4
:101A30000B946846FEF71EFF07200C900E940121C0
:101A40000D950F940CA8FEF741FE10A81096129465
:101A5000FEF7C8FD14B070BD01B5642301226946CC
:101A60000148FFF733FB08BD58040020F8B5FFF725
:101A700051FF124C0121217000216170401CA070A7
:101A80000325E5700E4E2171324608210520FFF72F
:101A90009FFE002803D10B4F387A002801D00F2079
:101AA000F8BD2570324608210520FFF791FE002879
:101AB00002D1387A0028F3D00120F8BD6806002052
:101AC0008813000054000020002141764161017418
:101AD0004174782242817D22D2008281FF2291329C
:101AE000C281017681767047F8B50446407E0127B1
:101AF000002813D121896068FEF7FEFC002808D079
:101B00000021207EA27E50408142207803D03843BD
:101B100003E00121F5E7400840002070207802260C
:101B2000C107002500291BD0800734D4FEF7F6FC3E
:101B30006169401A618988420FD320783043207050
:101B4000207C401C2074FEF7E9FC60612078402175
:101B5000084320706078384360702078C00715D142
:101B6000207881072ED5F9210840202108432070D4
:101B7000FEF7D4FC606120784006400E207060784B
:101B8000C10703D0400840003043607020788107CF
:101B900018D5C00716D0FEF7C1FC6169401AA189AB
:101BA00088420FD3207841070CD4042108439021A8
:101BB0002574084320706078400840006070FEF78C
:101BC000ADFC6061FEF7AAFC6169401AA1898842F8
:101BD00008D3207C002805D0607425742078082163
:101BE00008432070F8BD01780A0702D5427C022A1A
:101BF00001D000207047F72211400170012070478A
:101C00000178CA0604D5EF22114001700120704707
:101C10000020704701780A0702D5427C012A01D0D2
:101C200000207047F722114001700120704730B545
:101C3000039D416004460281FFF746FFA3762576A7
:101C4000204630BD0FB410B503A9044B044A0298D6
:101C500000F052F810BC08BC04B01847491E000838
:101C600010000020F8B5040C8BB2264682B25E4309
:101C70000D0C1046370C5843360480190021794169
:101C800016466E43370C36048019794126466E435A
:101C90008919F8BD8307FF22DB0E9A408907090ED8
:101CA0009940002808DB830809489B001B18186826
:101CB00090430843186070470007000F08388308F6
:101CC00004489B001B18D86990430843D8617047AB
:101CD00000E400E000ED00E002E008C8121F08C1C7
:101CE000002AFAD170477047002001E001C1121F9D
:101CF000002AFBD170470000FFB58DB004460025D7
:101D000006E025280AD0109A0F999047641C6D1C94
:101D100020780028F5D1284611B0F0BD0027012118
:101D2000484A009700E00743641C23780846203B9C
:101D300098401042F7D120782E2817D1042007436D
:101D40006078641C2A280CD10E98641C02C800918B
:101D50000E900BE000990A22514330394018641C60
:101D600000902078014630390929F3D920780028DD
:101D7000D1D0642808D0692806D075281ED0109AC2
:101D80000F9990476D1C5BE00A200E99019001C9E4
:101D90000E91002802DA40422D2102E0390504D5D7
:101DA0002B216A461172012103E0F90704D020219A
:101DB000F7E70BAE0B910DE00021FAE70A200E9930
:101DC000019001C90E91F7E70199FEF78BF93031C7
:101DD000761E31700028F7D103A8801B20300190B7
:101DE000780701D5009801E0012000900199884210
:101DF00001DD401A00E000200027009006E002A864
:101E0000109AC05D0F9990476D1C7F1C0B988742FC
:101E1000F5DB04E0109A30200F9990476D1C009973
:101E2000481E00900029F5DC05E03078109A761CF9
:101E30000F9990476D1C0199481E01900029F4DC10
:101E4000641C65E70928010013B5044B01226946AB
:101E50000348FFF73BF900981CBD0000FFFF00009E
:101E6000D804002088B0FEF767FBFFF7C7FDFFF737
:101E7000B3F9FFF795F9FFF75BFAFFF709FAFFF7F8
:101E80003BFA00200346012200905203624901A858
:101E9000FFF7CDFE7D263601604F0924E40601A838
:101EA000FFF722FE01A8FFF7B5FE002849D0002564
:101EB00020212046FEF725FBC820FEF767FA6D1C9F
:101EC000EDB2022DF4D3FFF7D1FD002815D0012883
:101ED00025D00F28E3D1002520212046FEF711FB55
:101EE0003846FEF753FA002220212046FEF70FFB6A
:101EF0006D1C2D062D0EEFD0D1E7002520212046A8
:101F0000FEF7FFFAC820FEF741FA00222021204602
:101F1000FEF7FDFA6D1C2D062D0EEFD0BFE7002554
:101F200020212046FEF7EDFA3046FEF72FFA002278
:101F300020212046FEF7EBFA6D1C2D062D0EEFD06A
:101F4000ADE701A8FFF74FFE002812D000252021A1
:101F50002046FEF7D6FA7D20C000FEF717FA0022D1
:101F600020212046FEF7D3FA6D1C2D062D0EEED053
:101F700095E701A8FFF744FE002845D00122202163
:101F80002046FEF7C4FA3046FEF700FAFFF7A6FC3B
:101F9000002815D0012825D00F2880D10025202128
:101FA0002046FEF7AEFA3846FEF7F0F9002220216F
:101FB0002046FEF7ACFA6D1C2D062D0EEFD06EE715
:101FC000002520212046FEF79CFAC820FEF7DEF906
:101FD000002220212046FEF79AFA6D1C2D062D0EB8
:101FE000EFD05CE7002520212046FEF78AFA304634
:101FF000FEF7CCF9002220212046FEF788FA6D1C5E
:102000002D062D0EEFD04AE7FFF7AAFC0022202173
:102010002046FEF77CFA42E70008004888130000DB
:102020000000000000000000010203040607080988
:10203000000000000102030457616974696E6720A3
:1020400046696E6765722E2E2E2E2E2E506C65619F
:1020500073652074727920746F20706C61636520E1
:102060007468652063656E746572206F662074689D
:10207000652066696E6765727072696E7420666C41
:10208000617420746F2073656E736F7220210D0A66
:1020900000000000B4200008000000201400000030
:1020A000D81C0008C820000814000020640A0000A2
:1020B000E81C00080100000004000000000000000F
:0820C00000127A00000000008C
:04000005080000B53A
:00000001FF
